{
    "contractName": "SnkrChain",
    "abi": [
        {
            "inputs": [],
            "stateMutability": "nonpayable",
            "type": "constructor"
        },
        {
            "anonymous": false,
            "inputs": [
                {
                    "indexed": true,
                    "internalType": "address",
                    "name": "owner",
                    "type": "address"
                },
                {
                    "indexed": true,
                    "internalType": "address",
                    "name": "approved",
                    "type": "address"
                },
                {
                    "indexed": true,
                    "internalType": "uint256",
                    "name": "tokenId",
                    "type": "uint256"
                }
            ],
            "name": "Approval",
            "type": "event"
        },
        {
            "anonymous": false,
            "inputs": [
                {
                    "indexed": true,
                    "internalType": "address",
                    "name": "owner",
                    "type": "address"
                },
                {
                    "indexed": true,
                    "internalType": "address",
                    "name": "operator",
                    "type": "address"
                },
                {
                    "indexed": false,
                    "internalType": "bool",
                    "name": "approved",
                    "type": "bool"
                }
            ],
            "name": "ApprovalForAll",
            "type": "event"
        },
        {
            "anonymous": false,
            "inputs": [
                {
                    "indexed": true,
                    "internalType": "uint256",
                    "name": "tokenId",
                    "type": "uint256"
                },
                {
                    "indexed": false,
                    "internalType": "address",
                    "name": "seller",
                    "type": "address"
                },
                {
                    "indexed": false,
                    "internalType": "address",
                    "name": "owner",
                    "type": "address"
                },
                {
                    "indexed": false,
                    "internalType": "uint256",
                    "name": "price",
                    "type": "uint256"
                },
                {
                    "indexed": false,
                    "internalType": "uint256",
                    "name": "size",
                    "type": "uint256"
                },
                {
                    "indexed": false,
                    "internalType": "bool",
                    "name": "sold",
                    "type": "bool"
                }
            ],
            "name": "MarketItemCreated",
            "type": "event"
        },
        {
            "anonymous": false,
            "inputs": [
                {
                    "indexed": true,
                    "internalType": "address",
                    "name": "from",
                    "type": "address"
                },
                {
                    "indexed": true,
                    "internalType": "address",
                    "name": "to",
                    "type": "address"
                },
                {
                    "indexed": true,
                    "internalType": "uint256",
                    "name": "tokenId",
                    "type": "uint256"
                }
            ],
            "name": "Transfer",
            "type": "event"
        },
        {
            "inputs": [
                {
                    "internalType": "address",
                    "name": "to",
                    "type": "address"
                },
                {
                    "internalType": "uint256",
                    "name": "tokenId",
                    "type": "uint256"
                }
            ],
            "name": "approve",
            "outputs": [],
            "stateMutability": "nonpayable",
            "type": "function"
        },
        {
            "inputs": [
                {
                    "internalType": "address",
                    "name": "owner",
                    "type": "address"
                }
            ],
            "name": "balanceOf",
            "outputs": [
                {
                    "internalType": "uint256",
                    "name": "",
                    "type": "uint256"
                }
            ],
            "stateMutability": "view",
            "type": "function"
        },
        {
            "inputs": [
                {
                    "internalType": "uint256",
                    "name": "tokenId",
                    "type": "uint256"
                }
            ],
            "name": "createMarketSale",
            "outputs": [],
            "stateMutability": "payable",
            "type": "function"
        },
        {
            "inputs": [
                {
                    "internalType": "string",
                    "name": "tokenURI",
                    "type": "string"
                },
                {
                    "internalType": "uint256",
                    "name": "size",
                    "type": "uint256"
                },
                {
                    "internalType": "uint256",
                    "name": "price",
                    "type": "uint256"
                }
            ],
            "name": "createToken",
            "outputs": [
                {
                    "internalType": "uint256",
                    "name": "",
                    "type": "uint256"
                }
            ],
            "stateMutability": "payable",
            "type": "function"
        },
        {
            "inputs": [],
            "name": "fetchItemsListed",
            "outputs": [
                {
                    "components": [
                        {
                            "internalType": "uint256",
                            "name": "tokenId",
                            "type": "uint256"
                        },
                        {
                            "internalType": "address payable",
                            "name": "seller",
                            "type": "address"
                        },
                        {
                            "internalType": "address payable",
                            "name": "owner",
                            "type": "address"
                        },
                        {
                            "internalType": "uint256",
                            "name": "price",
                            "type": "uint256"
                        },
                        {
                            "internalType": "uint256",
                            "name": "size",
                            "type": "uint256"
                        },
                        {
                            "internalType": "bool",
                            "name": "sold",
                            "type": "bool"
                        }
                    ],
                    "internalType": "struct SnkrChain.MarketItem[]",
                    "name": "",
                    "type": "tuple[]"
                }
            ],
            "stateMutability": "view",
            "type": "function"
        },
        {
            "inputs": [],
            "name": "fetchMarketItems",
            "outputs": [
                {
                    "components": [
                        {
                            "internalType": "uint256",
                            "name": "tokenId",
                            "type": "uint256"
                        },
                        {
                            "internalType": "address payable",
                            "name": "seller",
                            "type": "address"
                        },
                        {
                            "internalType": "address payable",
                            "name": "owner",
                            "type": "address"
                        },
                        {
                            "internalType": "uint256",
                            "name": "price",
                            "type": "uint256"
                        },
                        {
                            "internalType": "uint256",
                            "name": "size",
                            "type": "uint256"
                        },
                        {
                            "internalType": "bool",
                            "name": "sold",
                            "type": "bool"
                        }
                    ],
                    "internalType": "struct SnkrChain.MarketItem[]",
                    "name": "",
                    "type": "tuple[]"
                }
            ],
            "stateMutability": "view",
            "type": "function"
        },
        {
            "inputs": [],
            "name": "fetchMyNFTs",
            "outputs": [
                {
                    "components": [
                        {
                            "internalType": "uint256",
                            "name": "tokenId",
                            "type": "uint256"
                        },
                        {
                            "internalType": "address payable",
                            "name": "seller",
                            "type": "address"
                        },
                        {
                            "internalType": "address payable",
                            "name": "owner",
                            "type": "address"
                        },
                        {
                            "internalType": "uint256",
                            "name": "price",
                            "type": "uint256"
                        },
                        {
                            "internalType": "uint256",
                            "name": "size",
                            "type": "uint256"
                        },
                        {
                            "internalType": "bool",
                            "name": "sold",
                            "type": "bool"
                        }
                    ],
                    "internalType": "struct SnkrChain.MarketItem[]",
                    "name": "",
                    "type": "tuple[]"
                }
            ],
            "stateMutability": "view",
            "type": "function"
        },
        {
            "inputs": [
                {
                    "internalType": "uint256",
                    "name": "tokenId",
                    "type": "uint256"
                }
            ],
            "name": "getApproved",
            "outputs": [
                {
                    "internalType": "address",
                    "name": "",
                    "type": "address"
                }
            ],
            "stateMutability": "view",
            "type": "function"
        },
        {
            "inputs": [],
            "name": "getListingPrice",
            "outputs": [
                {
                    "internalType": "uint256",
                    "name": "",
                    "type": "uint256"
                }
            ],
            "stateMutability": "view",
            "type": "function"
        },
        {
            "inputs": [
                {
                    "internalType": "address",
                    "name": "owner",
                    "type": "address"
                },
                {
                    "internalType": "address",
                    "name": "operator",
                    "type": "address"
                }
            ],
            "name": "isApprovedForAll",
            "outputs": [
                {
                    "internalType": "bool",
                    "name": "",
                    "type": "bool"
                }
            ],
            "stateMutability": "view",
            "type": "function"
        },
        {
            "inputs": [],
            "name": "name",
            "outputs": [
                {
                    "internalType": "string",
                    "name": "",
                    "type": "string"
                }
            ],
            "stateMutability": "view",
            "type": "function"
        },
        {
            "inputs": [
                {
                    "internalType": "uint256",
                    "name": "tokenId",
                    "type": "uint256"
                }
            ],
            "name": "ownerOf",
            "outputs": [
                {
                    "internalType": "address",
                    "name": "",
                    "type": "address"
                }
            ],
            "stateMutability": "view",
            "type": "function"
        },
        {
            "inputs": [
                {
                    "internalType": "uint256",
                    "name": "tokenId",
                    "type": "uint256"
                },
                {
                    "internalType": "uint256",
                    "name": "price",
                    "type": "uint256"
                }
            ],
            "name": "resellToken",
            "outputs": [],
            "stateMutability": "payable",
            "type": "function"
        },
        {
            "inputs": [
                {
                    "internalType": "address",
                    "name": "from",
                    "type": "address"
                },
                {
                    "internalType": "address",
                    "name": "to",
                    "type": "address"
                },
                {
                    "internalType": "uint256",
                    "name": "tokenId",
                    "type": "uint256"
                }
            ],
            "name": "safeTransferFrom",
            "outputs": [],
            "stateMutability": "nonpayable",
            "type": "function"
        },
        {
            "inputs": [
                {
                    "internalType": "address",
                    "name": "from",
                    "type": "address"
                },
                {
                    "internalType": "address",
                    "name": "to",
                    "type": "address"
                },
                {
                    "internalType": "uint256",
                    "name": "tokenId",
                    "type": "uint256"
                },
                {
                    "internalType": "bytes",
                    "name": "_data",
                    "type": "bytes"
                }
            ],
            "name": "safeTransferFrom",
            "outputs": [],
            "stateMutability": "nonpayable",
            "type": "function"
        },
        {
            "inputs": [
                {
                    "internalType": "address",
                    "name": "operator",
                    "type": "address"
                },
                {
                    "internalType": "bool",
                    "name": "approved",
                    "type": "bool"
                }
            ],
            "name": "setApprovalForAll",
            "outputs": [],
            "stateMutability": "nonpayable",
            "type": "function"
        },
        {
            "inputs": [
                {
                    "internalType": "bytes4",
                    "name": "interfaceId",
                    "type": "bytes4"
                }
            ],
            "name": "supportsInterface",
            "outputs": [
                {
                    "internalType": "bool",
                    "name": "",
                    "type": "bool"
                }
            ],
            "stateMutability": "view",
            "type": "function"
        },
        {
            "inputs": [],
            "name": "symbol",
            "outputs": [
                {
                    "internalType": "string",
                    "name": "",
                    "type": "string"
                }
            ],
            "stateMutability": "view",
            "type": "function"
        },
        {
            "inputs": [
                {
                    "internalType": "uint256",
                    "name": "tokenId",
                    "type": "uint256"
                }
            ],
            "name": "tokenURI",
            "outputs": [
                {
                    "internalType": "string",
                    "name": "",
                    "type": "string"
                }
            ],
            "stateMutability": "view",
            "type": "function"
        },
        {
            "inputs": [
                {
                    "internalType": "address",
                    "name": "from",
                    "type": "address"
                },
                {
                    "internalType": "address",
                    "name": "to",
                    "type": "address"
                },
                {
                    "internalType": "uint256",
                    "name": "tokenId",
                    "type": "uint256"
                }
            ],
            "name": "transferFrom",
            "outputs": [],
            "stateMutability": "nonpayable",
            "type": "function"
        },
        {
            "inputs": [
                {
                    "internalType": "uint256",
                    "name": "_listingPrice",
                    "type": "uint256"
                }
            ],
            "name": "updateListingPrice",
            "outputs": [],
            "stateMutability": "payable",
            "type": "function"
        }
    ],
    "bytecode": "60806040526658d15e176280006009553480156200001c57600080fd5b50604080518082018252601081526f4d657461766572736520546f6b656e7360801b6020808301918252835180850190945260048452631351551560e21b9084015281519192916200007191600091620000a2565b50805162000087906001906020840190620000a2565b5050600a80546001600160a01b031916331790555062000185565b828054620000b09062000148565b90600052602060002090601f016020900481019282620000d457600085556200011f565b82601f10620000ef57805160ff19168380011785556200011f565b828001600101855582156200011f579182015b828111156200011f57825182559160200191906001019062000102565b506200012d92915062000131565b5090565b5b808211156200012d576000815560010162000132565b600181811c908216806200015d57607f821691505b602082108114156200017f57634e487b7160e01b600052602260045260246000fd5b50919050565b61239580620001956000396000f3fe60806040526004361061012a5760003560e01c80636352211e116100ab578063b88d4fde1161006f578063b88d4fde14610313578063be9af53614610333578063bec2a7c514610346578063c87b56dd14610359578063e219fc7514610379578063e985e9c51461038c57600080fd5b80636352211e1461028b57806370a08231146102ab57806395d89b41146102cb578063a22cb465146102e0578063ae677aa31461030057600080fd5b806312e85585116100f257806312e8558514610202578063202e37401461022157806323b872dd1461023657806342842e0e1461025657806345f8fa801461027657600080fd5b806301ffc9a71461012f57806306fdde0314610164578063081812fc14610186578063095ea7b3146101be5780630f08efe0146101e0575b600080fd5b34801561013b57600080fd5b5061014f61014a366004611f43565b6103d5565b60405190151581526020015b60405180910390f35b34801561017057600080fd5b50610179610427565b60405161015b9190612131565b34801561019257600080fd5b506101a66101a1366004611fda565b6104b9565b6040516001600160a01b03909116815260200161015b565b3480156101ca57600080fd5b506101de6101d9366004611f1a565b610546565b005b3480156101ec57600080fd5b506101f561065c565b60405161015b91906120ab565b34801561020e57600080fd5b506009545b60405190815260200161015b565b34801561022d57600080fd5b506101f56107fa565b34801561024257600080fd5b506101de610251366004611e2c565b6109d6565b34801561026257600080fd5b506101de610271366004611e2c565b610a07565b34801561028257600080fd5b506101f5610a22565b34801561029757600080fd5b506101a66102a6366004611fda565b610bfe565b3480156102b757600080fd5b506102136102c6366004611de0565b610c75565b3480156102d757600080fd5b50610179610cfc565b3480156102ec57600080fd5b506101de6102fb366004611ee0565b610d0b565b6101de61030e366004611fda565b610d1a565b34801561031f57600080fd5b506101de61032e366004611e67565b610d92565b6101de610341366004611fda565b610dca565b610213610354366004611f7b565b610f2f565b34801561036557600080fd5b50610179610374366004611fda565b610f73565b6101de610387366004611ff2565b6110e2565b34801561039857600080fd5b5061014f6103a7366004611dfa565b6001600160a01b03918216600090815260056020908152604080832093909416825291909152205460ff1690565b60006001600160e01b031982166380ac58cd60e01b148061040657506001600160e01b03198216635b5e139f60e01b145b8061042157506301ffc9a760e01b6001600160e01b03198316145b92915050565b6060600080546104369061229a565b80601f01602080910402602001604051908101604052809291908181526020018280546104629061229a565b80156104af5780601f10610484576101008083540402835291602001916104af565b820191906000526020600020905b81548152906001019060200180831161049257829003601f168201915b5050505050905090565b60006104c4826111da565b61052a5760405162461bcd60e51b815260206004820152602c60248201527f4552433732313a20617070726f76656420717565727920666f72206e6f6e657860448201526b34b9ba32b73a103a37b5b2b760a11b60648201526084015b60405180910390fd5b506000908152600460205260409020546001600160a01b031690565b600061055182610bfe565b9050806001600160a01b0316836001600160a01b031614156105bf5760405162461bcd60e51b815260206004820152602160248201527f4552433732313a20617070726f76616c20746f2063757272656e74206f776e656044820152603960f91b6064820152608401610521565b336001600160a01b03821614806105db57506105db81336103a7565b61064d5760405162461bcd60e51b815260206004820152603860248201527f4552433732313a20617070726f76652063616c6c6572206973206e6f74206f7760448201527f6e6572206e6f7220617070726f76656420666f7220616c6c00000000000000006064820152608401610521565b61065783836111f7565b505050565b6060600061066960075490565b9050600061067660085490565b6007546106839190612257565b90506000808267ffffffffffffffff8111156106af57634e487b7160e01b600052604160045260246000fd5b6040519080825280602002602001820160405280156106e857816020015b6106d5611c6b565b8152602001906001900390816106cd5790505b50905060005b848110156107f15730600b600061070684600161222b565b81526020810191909152604001600020600201546001600160a01b031614156107df57600061073682600161222b565b6000818152600b6020908152604091829020825160c0810184528154815260018201546001600160a01b03908116938201939093526002820154909216928201929092526003820154606082015260048201546080820152600582015460ff16151560a0820152855192935090918590879081106107c457634e487b7160e01b600052603260045260246000fd5b60209081029190910101526107da60018661222b565b945050505b806107e9816122d5565b9150506106ee565b50949350505050565b6060600061080760075490565b905060008060005b8381101561086a5733600b600061082784600161222b565b81526020810191909152604001600020600201546001600160a01b031614156108585761085560018461222b565b92505b80610862816122d5565b91505061080f565b5060008267ffffffffffffffff81111561089457634e487b7160e01b600052604160045260246000fd5b6040519080825280602002602001820160405280156108cd57816020015b6108ba611c6b565b8152602001906001900390816108b25790505b50905060005b848110156107f15733600b60006108eb84600161222b565b81526020810191909152604001600020600201546001600160a01b031614156109c457600061091b82600161222b565b6000818152600b6020908152604091829020825160c0810184528154815260018201546001600160a01b03908116938201939093526002820154909216928201929092526003820154606082015260048201546080820152600582015460ff16151560a0820152855192935090918590879081106109a957634e487b7160e01b600052603260045260246000fd5b60209081029190910101526109bf60018661222b565b945050505b806109ce816122d5565b9150506108d3565b6109e03382611265565b6109fc5760405162461bcd60e51b8152600401610521906121da565b61065783838361134e565b61065783838360405180602001604052806000815250610d92565b60606000610a2f60075490565b905060008060005b83811015610a925733600b6000610a4f84600161222b565b81526020810191909152604001600020600101546001600160a01b03161415610a8057610a7d60018461222b565b92505b80610a8a816122d5565b915050610a37565b5060008267ffffffffffffffff811115610abc57634e487b7160e01b600052604160045260246000fd5b604051908082528060200260200182016040528015610af557816020015b610ae2611c6b565b815260200190600190039081610ada5790505b50905060005b848110156107f15733600b6000610b1384600161222b565b81526020810191909152604001600020600101546001600160a01b03161415610bec576000610b4382600161222b565b6000818152600b6020908152604091829020825160c0810184528154815260018201546001600160a01b03908116938201939093526002820154909216928201929092526003820154606082015260048201546080820152600582015460ff16151560a082015285519293509091859087908110610bd157634e487b7160e01b600052603260045260246000fd5b6020908102919091010152610be760018661222b565b945050505b80610bf6816122d5565b915050610afb565b6000818152600260205260408120546001600160a01b0316806104215760405162461bcd60e51b815260206004820152602960248201527f4552433732313a206f776e657220717565727920666f72206e6f6e657869737460448201526832b73a103a37b5b2b760b91b6064820152608401610521565b60006001600160a01b038216610ce05760405162461bcd60e51b815260206004820152602a60248201527f4552433732313a2062616c616e636520717565727920666f7220746865207a65604482015269726f206164647265737360b01b6064820152608401610521565b506001600160a01b031660009081526003602052604090205490565b6060600180546104369061229a565b610d163383836114ea565b5050565b600a546001600160a01b03163314610d8d5760405162461bcd60e51b815260206004820152603060248201527f4f6e6c79206d61726b6574706c616365206f776e65722063616e20757064617460448201526f32903634b9ba34b73390383934b1b29760811b6064820152608401610521565b600955565b610d9c3383611265565b610db85760405162461bcd60e51b8152600401610521906121da565b610dc4848484846115b9565b50505050565b6000818152600b6020526040902060038101546001909101546001600160a01b0316348214610e63576040805162461bcd60e51b81526020600482015260248101919091527f506c65617365207375626d6974207468652061736b696e67207072696365206960448201527f6e206f7264657220746f20636f6d706c657465207468652070757263686173656064820152608401610521565b6000838152600b602052604090206002810180546001600160a01b0319908116331790915560058201805460ff1916600190811790915590910180549091169055610eb2600880546001019055565b610ebd30338561134e565b600a546009546040516001600160a01b039092169181156108fc0291906000818181858888f19350505050158015610ef9573d6000803e3d6000fd5b506040516001600160a01b038216903480156108fc02916000818181858888f19350505050158015610dc4573d6000803e3d6000fd5b6000610f3f600780546001019055565b6000610f4a60075490565b9050610f5633826115ec565b610f60818661171f565b610f6b8184866117aa565b949350505050565b6060610f7e826111da565b610fe45760405162461bcd60e51b815260206004820152603160248201527f45524337323155524953746f726167653a2055524920717565727920666f72206044820152703737b732bc34b9ba32b73a103a37b5b2b760791b6064820152608401610521565b60008281526006602052604081208054610ffd9061229a565b80601f01602080910402602001604051908101604052809291908181526020018280546110299061229a565b80156110765780601f1061104b57610100808354040283529160200191611076565b820191906000526020600020905b81548152906001019060200180831161105957829003601f168201915b50505050509050600061109460408051602081019091526000815290565b90508051600014156110a7575092915050565b8151156110d95780826040516020016110c192919061203f565b60405160208183030381529060405292505050919050565b610f6b84611915565b6000828152600b60205260409020600201546001600160a01b0316331461115e5760405162461bcd60e51b815260206004820152602a60248201527f4f6e6c79206974656d206f776e65722063616e20706572666f726d20746869736044820152691037b832b930ba34b7b760b11b6064820152608401610521565b600954341461117f5760405162461bcd60e51b815260040161052190612196565b6000828152600b6020526040902060058101805460ff19169055600381018290556001810180546001600160a01b0319908116331790915560029091018054909116301790556111cf60086119ed565b610d1633308461134e565b6000908152600260205260409020546001600160a01b0316151590565b600081815260046020526040902080546001600160a01b0319166001600160a01b038416908117909155819061122c82610bfe565b6001600160a01b03167f8c5be1e5ebec7d5bd14f71427d1e84f3dd0314c0f7b2291e5b200ac8c7c3b92560405160405180910390a45050565b6000611270826111da565b6112d15760405162461bcd60e51b815260206004820152602c60248201527f4552433732313a206f70657261746f7220717565727920666f72206e6f6e657860448201526b34b9ba32b73a103a37b5b2b760a11b6064820152608401610521565b60006112dc83610bfe565b9050806001600160a01b0316846001600160a01b0316148061132357506001600160a01b0380821660009081526005602090815260408083209388168352929052205460ff165b80610f6b5750836001600160a01b031661133c846104b9565b6001600160a01b031614949350505050565b826001600160a01b031661136182610bfe565b6001600160a01b0316146113c55760405162461bcd60e51b815260206004820152602560248201527f4552433732313a207472616e736665722066726f6d20696e636f72726563742060448201526437bbb732b960d91b6064820152608401610521565b6001600160a01b0382166114275760405162461bcd60e51b8152602060048201526024808201527f4552433732313a207472616e7366657220746f20746865207a65726f206164646044820152637265737360e01b6064820152608401610521565b6114326000826111f7565b6001600160a01b038316600090815260036020526040812080546001929061145b908490612257565b90915550506001600160a01b038216600090815260036020526040812080546001929061148990849061222b565b909155505060008181526002602052604080822080546001600160a01b0319166001600160a01b0386811691821790925591518493918716917fddf252ad1be2c89b69c2b068fc378daa952ba7f163c4a11628f55a4df523b3ef91a4505050565b816001600160a01b0316836001600160a01b0316141561154c5760405162461bcd60e51b815260206004820152601960248201527f4552433732313a20617070726f766520746f2063616c6c6572000000000000006044820152606401610521565b6001600160a01b03838116600081815260056020908152604080832094871680845294825291829020805460ff191686151590811790915591519182527f17307eab39ab6107e8899845ad3d59bd9653f200f220920489ca2b5937696c31910160405180910390a3505050565b6115c484848461134e565b6115d084848484611a44565b610dc45760405162461bcd60e51b815260040161052190612144565b6001600160a01b0382166116425760405162461bcd60e51b815260206004820181905260248201527f4552433732313a206d696e7420746f20746865207a65726f20616464726573736044820152606401610521565b61164b816111da565b156116985760405162461bcd60e51b815260206004820152601c60248201527f4552433732313a20746f6b656e20616c7265616479206d696e746564000000006044820152606401610521565b6001600160a01b03821660009081526003602052604081208054600192906116c190849061222b565b909155505060008181526002602052604080822080546001600160a01b0319166001600160a01b03861690811790915590518392907fddf252ad1be2c89b69c2b068fc378daa952ba7f163c4a11628f55a4df523b3ef908290a45050565b611728826111da565b61178b5760405162461bcd60e51b815260206004820152602e60248201527f45524337323155524953746f726167653a2055524920736574206f66206e6f6e60448201526d32bc34b9ba32b73a103a37b5b2b760911b6064820152608401610521565b6000828152600660209081526040909120825161065792840190611cb5565b600082116117fa5760405162461bcd60e51b815260206004820152601c60248201527f5072696365206d757374206265206174206c65617374203120776569000000006044820152606401610521565b600954341461181b5760405162461bcd60e51b815260040161052190612196565b6040805160c081018252848152336020808301828152308486018181526060860189815260808701898152600060a089018181528d8252600b909752989098209651875592516001870180546001600160a01b03199081166001600160a01b0393841617909155915160028801805490931691161790559051600385015593516004840155516005909201805460ff1916921515929092179091556118c0918561134e565b60408051338152306020820152908101839052606081018290526000608082015283907f04725f44278a0475942ea64180dcfe5b01f4834fa5ec4ef7249caa03eadb65b49060a00160405180910390a2505050565b6060611920826111da565b6119845760405162461bcd60e51b815260206004820152602f60248201527f4552433732314d657461646174613a2055524920717565727920666f72206e6f60448201526e3732bc34b9ba32b73a103a37b5b2b760891b6064820152608401610521565b600061199b60408051602081019091526000815290565b905060008151116119bb57604051806020016040528060008152506119e6565b806119c584611b51565b6040516020016119d692919061203f565b6040516020818303038152906040525b9392505050565b805480611a3c5760405162461bcd60e51b815260206004820152601b60248201527f436f756e7465723a2064656372656d656e74206f766572666c6f7700000000006044820152606401610521565b600019019055565b60006001600160a01b0384163b15611b4657604051630a85bd0160e11b81526001600160a01b0385169063150b7a0290611a8890339089908890889060040161206e565b602060405180830381600087803b158015611aa257600080fd5b505af1925050508015611ad2575060408051601f3d908101601f19168201909252611acf91810190611f5f565b60015b611b2c573d808015611b00576040519150601f19603f3d011682016040523d82523d6000602084013e611b05565b606091505b508051611b245760405162461bcd60e51b815260040161052190612144565b805181602001fd5b6001600160e01b031916630a85bd0160e11b149050610f6b565b506001949350505050565b606081611b755750506040805180820190915260018152600360fc1b602082015290565b8160005b8115611b9f5780611b89816122d5565b9150611b989050600a83612243565b9150611b79565b60008167ffffffffffffffff811115611bc857634e487b7160e01b600052604160045260246000fd5b6040519080825280601f01601f191660200182016040528015611bf2576020820181803683370190505b5090505b8415610f6b57611c07600183612257565b9150611c14600a866122f0565b611c1f90603061222b565b60f81b818381518110611c4257634e487b7160e01b600052603260045260246000fd5b60200101906001600160f81b031916908160001a905350611c64600a86612243565b9450611bf6565b6040518060c001604052806000815260200160006001600160a01b0316815260200160006001600160a01b0316815260200160008152602001600081526020016000151581525090565b828054611cc19061229a565b90600052602060002090601f016020900481019282611ce35760008555611d29565b82601f10611cfc57805160ff1916838001178555611d29565b82800160010185558215611d29579182015b82811115611d29578251825591602001919060010190611d0e565b50611d35929150611d39565b5090565b5b80821115611d355760008155600101611d3a565b600067ffffffffffffffff80841115611d6957611d69612330565b604051601f8501601f19908116603f01168101908282118183101715611d9157611d91612330565b81604052809350858152868686011115611daa57600080fd5b858560208301376000602087830101525050509392505050565b80356001600160a01b0381168114611ddb57600080fd5b919050565b600060208284031215611df1578081fd5b6119e682611dc4565b60008060408385031215611e0c578081fd5b611e1583611dc4565b9150611e2360208401611dc4565b90509250929050565b600080600060608486031215611e40578081fd5b611e4984611dc4565b9250611e5760208501611dc4565b9150604084013590509250925092565b60008060008060808587031215611e7c578081fd5b611e8585611dc4565b9350611e9360208601611dc4565b925060408501359150606085013567ffffffffffffffff811115611eb5578182fd5b8501601f81018713611ec5578182fd5b611ed487823560208401611d4e565b91505092959194509250565b60008060408385031215611ef2578182fd5b611efb83611dc4565b915060208301358015158114611f0f578182fd5b809150509250929050565b60008060408385031215611f2c578182fd5b611f3583611dc4565b946020939093013593505050565b600060208284031215611f54578081fd5b81356119e681612346565b600060208284031215611f70578081fd5b81516119e681612346565b600080600060608486031215611f8f578283fd5b833567ffffffffffffffff811115611fa5578384fd5b8401601f81018613611fb5578384fd5b611fc486823560208401611d4e565b9660208601359650604090950135949350505050565b600060208284031215611feb578081fd5b5035919050565b60008060408385031215612004578182fd5b50508035926020909101359150565b6000815180845261202b81602086016020860161226e565b601f01601f19169290920160200192915050565b6000835161205181846020880161226e565b83519083019061206581836020880161226e565b01949350505050565b6001600160a01b03858116825284166020820152604081018390526080606082018190526000906120a190830184612013565b9695505050505050565b602080825282518282018190526000919060409081850190868401855b8281101561212457815180518552868101516001600160a01b0390811688870152868201511686860152606080820151908601526080808201519086015260a09081015115159085015260c090930192908501906001016120c8565b5091979650505050505050565b6020815260006119e66020830184612013565b60208082526032908201527f4552433732313a207472616e7366657220746f206e6f6e20455243373231526560408201527131b2b4bb32b91034b6b83632b6b2b73a32b960711b606082015260800190565b60208082526024908201527f5072696365206d75737420626520657175616c20746f206c697374696e6720706040820152637269636560e01b606082015260800190565b60208082526031908201527f4552433732313a207472616e736665722063616c6c6572206973206e6f74206f6040820152701ddb995c881b9bdc88185c1c1c9bdd9959607a1b606082015260800190565b6000821982111561223e5761223e612304565b500190565b6000826122525761225261231a565b500490565b60008282101561226957612269612304565b500390565b60005b83811015612289578181015183820152602001612271565b83811115610dc45750506000910152565b600181811c908216806122ae57607f821691505b602082108114156122cf57634e487b7160e01b600052602260045260246000fd5b50919050565b60006000198214156122e9576122e9612304565b5060010190565b6000826122ff576122ff61231a565b500690565b634e487b7160e01b600052601160045260246000fd5b634e487b7160e01b600052601260045260246000fd5b634e487b7160e01b600052604160045260246000fd5b6001600160e01b03198116811461235c57600080fd5b5056fea2646970667358221220db3d7d2859c7401f93dfe2255d200e2ffbbf7d5abe39ceb331f6a8ce34faa36964736f6c63430008040033",
    "sourcePath": "c:/Users/Akmal/cs3004-project/contracts/SnkrChain.sol",
    "compiler": {
        "name": "solc",
        "version": "0.8.4+commit.c7e474f2"
    },
    "functionHashes": {
        "approve(address,uint256)": "095ea7b3",
        "balanceOf(address)": "70a08231",
        "createMarketSale(uint256)": "be9af536",
        "createToken(string,uint256,uint256)": "bec2a7c5",
        "fetchItemsListed()": "45f8fa80",
        "fetchMarketItems()": "0f08efe0",
        "fetchMyNFTs()": "202e3740",
        "getApproved(uint256)": "081812fc",
        "getListingPrice()": "12e85585",
        "isApprovedForAll(address,address)": "e985e9c5",
        "name()": "06fdde03",
        "ownerOf(uint256)": "6352211e",
        "resellToken(uint256,uint256)": "e219fc75",
        "safeTransferFrom(address,address,uint256)": "42842e0e",
        "safeTransferFrom(address,address,uint256,bytes)": "b88d4fde",
        "setApprovalForAll(address,bool)": "a22cb465",
        "supportsInterface(bytes4)": "01ffc9a7",
        "symbol()": "95d89b41",
        "tokenURI(uint256)": "c87b56dd",
        "transferFrom(address,address,uint256)": "23b872dd",
        "updateListingPrice(uint256)": "ae677aa3"
    },
    "gasEstimates": {
        "creation": {
            "codeDepositCost": "1821800",
            "executionCost": "infinite",
            "totalCost": "infinite"
        },
        "external": {
            "approve(address,uint256)": "infinite",
            "balanceOf(address)": "1334",
            "createMarketSale(uint256)": "infinite",
            "createToken(string,uint256,uint256)": "infinite",
            "fetchItemsListed()": "infinite",
            "fetchMarketItems()": "infinite",
            "fetchMyNFTs()": "infinite",
            "getApproved(uint256)": "2199",
            "getListingPrice()": "1004",
            "isApprovedForAll(address,address)": "infinite",
            "name()": "infinite",
            "ownerOf(uint256)": "1279",
            "resellToken(uint256,uint256)": "infinite",
            "safeTransferFrom(address,address,uint256)": "infinite",
            "safeTransferFrom(address,address,uint256,bytes)": "infinite",
            "setApprovalForAll(address,bool)": "23375",
            "supportsInterface(bytes4)": "534",
            "symbol()": "infinite",
            "tokenURI(uint256)": "infinite",
            "transferFrom(address,address,uint256)": "infinite",
            "updateListingPrice(uint256)": "21151"
        },
        "internal": {
            "createMarketItem(uint256,uint256,uint256)": "infinite"
        }
    }
}